:020000040800F2
:100000000000022091C504089325040881250408F6
:1000100095250408A5250408B5250408000000005E
:10002000000000000000000000000000C5250408DA
:10003000C725040800000000C9250408CD250408D0
:100040008DC50408FD2604080927040811270408A3
:100050008D2604088DC504089126040897260408F7
:100060009D260408A3260408A9260408214F040895
:10007000314F0408414F0408514F0408614F0408F0
:10008000714F0408814F04088DC504088DC504080C
:10009000C9270408D1270408D9270408AF26040873
:1000A000252704082B2704083D27040843270408B4
:1000B000492704084F27040855270408F527040892
:1000C000FB27040801280408072804088DC5040834
:1000D0008DC50408A5270408AB270408B127040828
:1000E000D3260408032704081926040881270408D6
:1000F000872704089F27040899270408914F0408BC
:100100008DC504086DAC04085D2704088DC504087E
:10011000B7270408BD270408752704087B270408AF
:10012000A14F0408B14F0408C14F0408D14F04087F
:10013000E14F04088DC504088DC504088DC5040869
:10014000DF270408E7270408EF2704080D26040822
:10015000F14F04080150040811500408C327040893
:100160008DC504088DC504088DC504088DC5040817
:100170008DC504088DC504088DC504080000000065
:100180008DC504088DC5040842884378007843EA89
:10019000022340EA032070470B0A017043700B0CE6
:1001A000090E8370C1707047036A0239023B8B42AB
:1001B00083BFC389406B01FB0300002070470246E8
:1001C00000F10B010020C30143EA500312F8010BB8
:1001D00050FA83F38A42D8B2F5D1704737B50D464D
:1001E000044620B900232B60092003B030BD03680A
:1001F000002BF7D05A79002AF4D05989828891428D
:10020000F0D10DF107020621186802F0EFFA00287C
:10021000E8D19DF8070010F00100E3D123682B60BE
:10022000E3E7CA7E8B7E032843EA022301BF487DB1
:100230000A7D42EA002243EA024318467047C2F3AD
:1002400007238A76CB760378032B01BF120C0A753D
:10025000120A4A757047F8B5856B00F13C070446F1
:1002600001232A463946006802F092FAA0B9E36AEF
:10027000626AE071EB1A934201D30020F8BDA679BF
:10028000012EFAD9636A20681D442A4601233946A3
:1002900002F07EFA013EF3E70120EFE7C3790BB1EC
:1002A000FFF7D9BF18467047836B8B4270B506467F
:1002B0000D4612D0FFF7F2FF044660B92A4601232B
:1002C00006F13C01306802F039FA00281CBF4FF0FB
:1002D000FF350124B563204670BD0024FBE7000014
:1002E000002310B5C3714FF0FF3383630446FFF75B
:1002F000DBFF30BB94F83B2294F83A3243EA022306
:100300004AF6552293421ED194F83C30E92B05D091
:10031000E36B104A03F0FF13934216D104F172000D
:10032000FFF732FF0C4B20F07F4098420FD004F1D2
:100330008E00FFF729FF094B984214BF02200020CE
:1003400010BD0420FCE70320FAE70220F8E70020B4
:10035000F6E700BFEB00900046415400464154339D
:100360002DE9F043437987B0044601F0FE059BB1C7
:1003700006210DF10702006802F038FA9DF8070027
:10038000C10709D4002D00F0248110F0040000D032
:100390000A2007B0BDE8F083002363710DF1070266
:1003A0000521206802F022FA9DF80730DA0700F1F3
:1003B00012810DB15B07EBD400212046FFF790FFBF
:1003C0000228034603D0012824D8257975B304F206
:1003D0000225002102AF15F8040C10B12846FFF7E2
:1003E000D3FE47F821000131042905F11005F2D1AF
:1003F000267906B1013E57F826507DB129462046A0
:10040000FFF76EFF0346227952B9012B0ED9013650
:10041000032EF0D9042B07D10120BAE70323F2E71A
:10042000042BF9D0012B01D90D20B2E794F8482014
:1004300094F8473043EA0223B3F5007FF4D194F8EF
:10044000533094F8526056EA032604D104F1600058
:10045000FFF79AFE064694F84C90666209F1FF3366
:10046000012B84F80690DFD894F84970BBB2E38181
:10047000002BD9D07B1E3B42D6D194F84E3094F855
:100480004D8048EA032818F00F0FA4F80C80CBD158
:1004900094F8501094F84F0050EA012003D104F171
:1004A0005C00FFF771FE94F84B3094F84A2052EA52
:1004B0000322B9D006FB09F302EB181C9C448445C7
:1004C000B2D8A0EB0C01B1FBF7F10029ACD04FF68C
:1004D000F577B94294BF0227032740F6F5708142B1
:1004E00098BF01272A4402310CEB0500032F21623B
:1004F000A562E262606359D194F8672094F866308F
:1005000053EA022390D1B8F1000F8DD104F16800B5
:10051000FFF73AFE2063890001F2FF11B6EB512F7D
:1005200082D34FF0FF33C4E90533032F4FF080032C
:1005300023722FD194F86D2094F86C3043EA022393
:10054000012B27D1691C2046FFF7AEFE10BB94F8A3
:100550003B2294F83A32207243EA02234AF65522AB
:10056000934217D104F13C00FFF70EFE1B4B98425B
:1005700010D104F50870FFF707FE194B984209D116
:1005800004F50970FFF700FEA06104F50A70FFF79B
:10059000FBFD6061134A6771138801339BB21380BE
:1005A00063810020104B2361E061F2E6B8F1000F97
:1005B0003FF43AAF022F4FEA410018BF40181344EE
:1005C00018BF01F0010123630CBF014601EB50018C
:1005D000A2E72846DDE60320DBE600BF5252614178
:1005E000727241612A0000202C00002001292DE9AF
:1005F000F04705460C46174672D9036A8B426FD9FD
:100600004379022B3FD0032B50D0012B68D101EB53
:100610005108C16A01EB5821FFF746FE064638BB78
:1006200005F13C0908F1010AC8F3080814F00104B7
:100630001FBF19F8083003F00F023B0103F0F0036D
:1006400014BF1343FBB209F80830E96A0123EB71C8
:1006500001EB5A212846FFF727FE064640B9CAF3A8
:10066000080A44B1C7F3071709F80A700123EB71B0
:100670003046BDE8F08719F80A30C7F3032723F0A6
:100680000F031F43F0E7C16A01EB1421FFF70CFED3
:1006900006460028ECD1640005F13C0304F4FF7425
:1006A0001A191F55C7F307275770DFE7C16A01EB17
:1006B000D411FFF7F9FD06460028D9D1A40005F1B1
:1006C0003C0304F4FE741C442046FFF75DFD27F054
:1006D000704700F0704139432046FFF75DFDC5E7E4
:1006E0000226C5E70129F8B505460C4652D9036A2A
:1006F00099424FD24379022B29D0032B38D0012BBA
:1007000048D101EB5106C16A01EB5621FFF7CCFD40
:1007100010B14FF0FF30F8BD771CE96AC6F3080648
:100720002E4401EB5721284696F83C60FFF7BCFDAC
:100730000028EED1C7F308073D44E30795F83C00D5
:1007400046EA00204CBF0009C0F30B00E3E7C16A92
:1007500001EB1421FFF7A8FD0028DAD164003C3535
:1007600004F4FF742B19285D5B7840EA0320D2E77C
:10077000C16A01EBD411FFF797FD0028C9D1A4008D
:1007800005F13C0004F4FE742044FFF7FDFC20F06A
:100790007040C0E70120BEE7B1F5001FF8B506467E
:1007A0000D4601D30220F8BDCA06FBD18268046859
:1007B0003161C2B96379022B01D9236BA3B9A38933
:1007C000B3EB551FEED9236BB361B3697261002B94
:1007D000E8D003EB55233C34C5F308052C44B36142
:1007E000F4610020DFE71346E7891A467F02BD4225
:1007F000114604D22046FFF7D7FCB061E5E7306828
:10080000FFF770FF431C024606D00128CAD9236AAD
:100810008342C7D9ED1BEAE70120C4E72DE9F04187
:10082000804605680F4671B96E69F6B12B6AB3420E
:1008300098BF012634462B6A0134A34218D8012EF2
:1008400015D8002409E02846FFF74CFF012804468C
:1008500037D9431C04D14FF0FF342046BDE8F08166
:100860002B6A8342F9D83E46E4E70126E2E70224F8
:100870002146D8F80000FFF735FF30B1012820D01D
:100880000130E8D0B442D6D1DBE74FF0FF32214649
:100890002846FFF7ABFE90B957B92A6AAB696C617D
:1008A000023A93420FD32B7A43F001032B72D4E721
:1008B000224639462846FFF799FE0028EDD0012848
:1008C000C9D00124C9E7013BAB61ECE7F8B50D469F
:1008D000012D074611462CD90468236AAB4228D95A
:1008E0002AB14FF0FF322046FFF780FE30B929468B
:1008F0003868FFF7F7FE064608B90020F8BD012862
:1009000017D0431C17D0002229462046FFF76EFE61
:100910000028F3D1226AA369911E8B4205D20133CC
:10092000A361237A43F001032372B2423546DED835
:10093000E3E70220E2E70120E0E72DE9F0410025AE
:10094000D0F800808D75836906460C46002B57D081
:10095000C36A01330AD001F11607D8F8103033F812
:10096000150000284ED125440023AB75F169A07D08
:1009700001F10B0E0D4600232E2615F8012B202A1F
:1009800024D0052AA5EB010C08BFE522BCF1090F14
:1009900004D1E71800B9BE757E720133E7187A7288
:1009A00098B9A2F14108B8F1190F0DD8BCF1090F9F
:1009B00091F80C8034BF4FF0080C4FF0100C18EA7F
:1009C0000C0F1CBF2032D2B2BA7501337545D4D199
:1009D00028B9E21890750A7B002A08BF0023234437
:1009E00000225A72CB7A237201F11C00FFF7CCFB74
:1009F000206001F11600FFF7C7FBE080000CA0802B
:100A0000BDE8F08100213DF0E3F830B10135B5F5E6
:100A1000807F02D007F8010B9FE70025A3E7F8B518
:100A20000446FFF73BFC0546002842D16379032BBF
:100A300037D1277A012F34D104F13C0601464FF417
:100A4000007230463DF047F8552384F83A32AA2325
:100A500084F83B3252234122722184F83C3084F8DE
:100A60003D30612384F83E3084F83F2084F8222210
:100A700084F8233284F8201284F8211204F50970D6
:100A8000A169FFF789FB616904F50A70FFF784FB30
:100A9000A26A20680132A2633B46314601F078FE2B
:100AA000257200221146206801F0A0FE003018BF18
:100AB0000120F8BD83692DE9F04705460F46ABB12B
:100AC000026902F12008B8F5001F0FD2C8F3080927
:100AD0000468B9F1000F4DD141690133836139B91F
:100AE000A389B3EB581F45D80023AB6104200BE06A
:100AF000E389013B13EA58233CD12046FFF7F2FD7E
:100B00000128064602D80220BDE8F087421C01D128
:100B10000120F9E7236A834226D8002FE4D06969CF
:100B20002846FFF77BFE0646002836D00128EAD08B
:100B3000431CEDD02046FFF7B1FB07460028E7D164
:100B400001464FF4007204F13C003CF0C4FF314612
:100B50002046FFF729FB4FF0010AA063E3899F427B
:100B60000FD3A36BDF1BA7636E6131462046FFF7EF
:100B70001BFBA8613C344C44C5F81080EC6100209C
:100B8000C2E784F807A02046FFF765FB0028BFD125
:100B9000A36B01330137A363E0E70720B4E7F8B59F
:100BA0000F46002104460668FFF7F6FDA8B9054682
:100BB000A1693046FFF778FB78B9E3691B78E52B2C
:100BC00000D01BB90135BD4201D1F8BD0546012158
:100BD0002046FFF76FFF0028EAD0042808BF07204F
:100BE000F3E700002DE9F84FFF250668DFF81C81C8
:100BF00082460F462C464FF0040B4FF6FF79DAF889
:100C0000181019B9BBF1000F72D061E03046FFF740
:100C10004BFB834600285BD1DAF81C000278002ADF
:100C200070D0C37AE52A03F03F038AF8063055D026
:100C30002E2A53D023F02001A1F1080CDCF1000191
:100C400041EB0C01B94249D10F2B4CD1510643D590
:100C5000DAF81030457BCAF82C3002F0BF02437B33
:100C6000AB423BD1C17E837E43EA01231BB2ABBBC7
:100C70000178D6F810C001F03F0101390D2461431D
:100C80004FF0010E13F8084000EB040B045D9BF8D5
:100C900001B044EA0B24BEF1000F21D0FE291DD87B
:100CA0002CF81140A646013101330D2BEAD103780F
:100CB0005B0604D5FE2911D800232CF81130541EF0
:100CC000E4B200215046FFF7F5FE8346002896D097
:100CD0000023CAF818300DE09442C0D0FF24F0E79A
:100CE0004C45E1D0FAE744B9FFF769FAA84204D1CC
:100CF0004FF0000B5846BDE8F88F4FF0FF33CAF8AD
:100D00002C30F7E74FF0040BE2E700BF01A4060820
:100D1000C16A4B1C2DE9F04104460568066918D1EB
:100D2000E5274FF00108A1692846FFF7BDFA60B931
:100D3000E3691F7085F807802369B3420DD201462D
:100D40002046FFF7B7FE0028EDD0042808BF022098
:100D500003E0FFF721FD0028E2D0BDE8F0810000AC
:100D60002DE9F04F002185B00446D0F800A0FFF730
:100D700013FD8046002840F093804FF0FF334FF082
:100D8000FF09E3624E46A1695046FFF78DFA80469F
:100D9000002840F08580E5692F78002F00F08480DE
:100DA000EA7AE52F02F03F03A37103D0120705D5BD
:100DB0000F2B05D04FF0FF33E36258E00F2B5DD1CE
:100DC00094F82B30580648D479064ED5236995F807
:100DD0000D90E36207F0BF076B7B4B4547D1EB7E7D
:100DE000AE7E46EA032636B2002E40D195F800804A
:100DF000DAF810B008F03F0808F1FF334FF00D08A3
:100E000008FB03F801212A4BF25CAB185878AB5C65
:100E100043EA002369B3B8F1FE0F28D818460393BC
:100E20003CF0F4FE08F1010202903BF81800019238
:100E30003CF0ECFE0299814219D1039B019A1946BC
:100E4000904601360D2EDED12B785A0603D511B10E
:100E50003BF818305BB9013FFEB200212046FFF796
:100E600029FE804600288ED01AE0BE42B4D0FF266C
:100E7000F3E74FF6FF729342E3D0F8E726B928462E
:100E8000FFF79DF948450BD094F82B30DB0791D440
:100E90000B2204F1200128463CF03CFE002889D1B9
:100EA000404605B0BDE8F08F4FF00408F8E700BFFA
:100EB00001A406082DE9F04F90F82BB01BF0A00418
:100EC00089B0054640F0828007683A6932F81430EC
:100ED000002B63D105F1200696E807000DF11409F7
:100EE0001BF0010F89E8070077D0402385F82B30ED
:100EF0004FF0010899E80700B4463B69ACE80300ED
:100F00002CF8022BB8F1050F4FEA12428CF80020A2
:100F100058D9981E424630F8021F002940D10721B7
:100F200002F00F0C0CF13000392801F1FF3103AB56
:100F300088BF0CF1370003EB010C12098CF801009B
:100F4000EED108AB58184FF07E0C00F814CC8A4252
:100F500004D0B05C202802F1010C35D132440729BD
:100F60009BBF08AB5818202010F8140C02F8010B96
:100F7000A2EB060098BF01310728F0D92846FFF7F9
:100F8000EFFE824628BB08F10108B8F1640FB1D129
:100F90004FF0070A504609B0BDE8F08F013495E7DD
:100FA0004FF0100C01F0010E0EEB4202D30344BFD0
:100FB00082F4883282F02102BCF1010C4FEA510127
:100FC000F0D1A8E74246AAE76246C0E74FF0060A1A
:100FD000E0E70428DED185F82BB01BF0020F1BBF21
:100FE0000C340D230124B4FBF3F418BF0134214663
:100FF0002846FFF7D4FD82460028CBD1013C56D0CD
:1010000029692846A1EB4411FFF7C6FB8246002858
:10101000C0D13046FFF7D3F84FF6FF798046A96973
:101020003846FFF741F982460028B3D1EB69D7F87B
:1010300010E083F80D800F22E1B24FF00D0CDA7250
:101040004A1E0CFB02F218739876D87601928446F9
:1010500048451FBF019A3EF8120001320192234A0F
:101060001CF802A00CF1010C03EB0A0B03F80A00B8
:101070004FEA102A002808BF4846BCF10D0F8BF834
:1010800001A0E5D1484503D0019A3EF812200AB9E3
:1010900041F0400119700123FB7100212846FFF740
:1010A00009FD824600287FF475AF013CB7D1A969DC
:1010B0003846FFF7F9F8824600287FF46BAF014607
:1010C0002022E8693CF007FD03CEEB691860596007
:1010D000B278318819819A7295F82B30EA6903F059
:1010E000180313730123FB7154E700BF01A4060822
:1010F0002DE9F74F0B78D0F800B02F2B0646884625
:1011000001D05C2B0AD1424613782F2B904602F176
:101110000102F9D05C2BF7D0002301E0DBF81C3092
:10112000B36098F800301F2B00F2D8808023002194
:10113000304686F82B3003B0BDE8F04FFFF72CBBEC
:10114000B4F5807F0BD001213CF042FD38B17F28FF
:1011500007D8934A12F8013F1BB18342FAD1062007
:101160000BE127F8020F2546C0E0022D04D1B9F8A3
:1011700002302E2B00F0D78009EB45036DBB002118
:1011800009EB450329F81510002DE8D04FF0203069
:1011900070623062C6F8270039F81120202A24D066
:1011A0002E2A22D009B144F0030433F8022D2E2A4E
:1011B00001D0013DF9D100234FF0080A1F4639F84C
:1011C00011004A1C10B3202803D02E280FD1AA42A8
:1011D00011D044F003041146F1E733F8022D202A20
:1011E00001D02E2ACBD1013DC8E70131D4E75345C8
:1011F00005D2AA423AD1BAF10B0F30D102E0BAF1CE
:101200000B0F27D144F003044FF00B0A96F820305F
:10121000E52B04BF052386F82030BAF1080F04BF80
:10122000BF00FFB207F00C030C2B03D007F0030242
:10123000032A01D144F00204A00700F1898007F0DD
:101240000307012F08BF44F01004042B08BF44F02B
:1012500008047DE0AA4202D044F00304D6D8BF00BF
:10126000FFB22A464FF00B0A0823B4E77F280ED9B5
:101270000021CDE900233CF0ABFC44F00204DDE9A1
:10128000002360B14749084410F8800C38B1DFF8FA
:1012900018C11CF8011F002974D08142F9D144F013
:1012A00003045F20F118013381F8200093E747F031
:1012B0000207F7E7002A08BF05205EE05A075CD462
:1012C000B379DB065CD533699BF80500C3F30803EB
:1012D0000BF13C011944FEF7A4FFB0603368D3F86A
:1012E000109008F1FF3AA9F1020700251AF8010F42
:1012F0001F2805F101040ED92F2802D05C287FF4A5
:101300001FAF08EB0403A3EB080413F8012B2F2AEB
:10131000F9D05C2AF7D01F28A0448CBF00240424F5
:10132000012D7FF422AFB9F800302E2B7FF424AFCB
:10133000002329F8153006F120029D4294BF202198
:101340002E2101330B2B02F8011BF6D144F02004AF
:1013500086F82B403046FFF703FD96F82B30002827
:10136000ACD0042809D1990603F00402A2D5002AC2
:10137000B4D0802386F82B30002003B0BDE8F08F76
:101380000520FAE7A0F14101192990D9A0F16101E6
:1013900019299EBF203847F0010780B282E700BFBD
:1013A0006DA4060881A3060876A4060800214171F1
:1013B000FEF7D6BF2DE9F04705468CB091461F4693
:1013C0000C46002900F0C48003F03F063146FEF7CA
:1013D000C7FF002840F0B4800DF13008494648F8B6
:1013E000305D4046FFF784FE024620B99DF92B3060
:1013F000002BB8BF062217F01C0F4ED0002A43D096
:10140000042A3ED14046FFF755FD0246C8BB46F0D0
:10141000080631074BD549F055FC024601460798AE
:101420000E30FEF7B9FE079811461630FEF7B4FEEF
:10143000079B2022DA72DDF81CA0A946514619F854
:10144000050FFEF7EEFE002207464846FEF7F7FEC0
:10145000079B00221A775A779A77DA770123EB7184
:101460002FB339464046D5F83890FFF72FFA024699
:1014700038B949462846FEF717FF013F6F6102461B
:10148000A8B10023236032E09DF8063013F0110F5D
:101490005AD17807BDD50822F3E7002AF1D19DF88B
:1014A0000630DA064ED4BF0701D5D8074CD4AB6B53
:1014B000079F2362676268793107394648BF46F063
:1014C0004006FEF7AEFE0146A06007F11C00FEF7E5
:1014D0005BFE6B89A380B2064FF000030746E06015
:1014E000256026746374E361636104D400221046AE
:1014F0000CB0BDE8F0870028F8D0EE896061760274
:10150000BE420FD30022A161002ABAD1C7F308035B
:10151000002BEBD02846FEF747FEB8B100EB572072
:10152000E061E4E72068FFF7DDF801280146A7EB5A
:10153000060703D9431CE3D10122E4E70222E2E7D4
:1015400002469EE704229CE707229AE7022298E7D8
:101550000922CCE72DE9F04F994685B00023884653
:10156000C9F8003003A904461546FEF737FE0646C3
:10157000E0B9667CD6B9237CDA0779D5E368676978
:10158000DF1BAF4228BF2F4687B16269C2F3080351
:10159000002B54D1039BDB89013B13EA522A13D160
:1015A00042B9A06801280AD802266674304605B000
:1015B000BDE8F08FA1692068FFF794F8F2E7431CBB
:1015C00001D10126F1E7A061DDF80CB0A169584610
:1015D000FEF7EAFD0028E7D00AEB00037D0A01933D
:1015E0002BD0BBF80E20DBF800000AEB050191427E
:1015F00088BFA2EB0A052B46019A414601F09EF8EE
:101600000028DED10399CB795BB1886B019BC01AAE
:10161000A84206D24FF400723C3108EB40203CF067
:101620001AFA6D0263692B446361D9F800302B44C8
:10163000A844C9F800307F1BA6E7019BE3616569F8
:10164000E1690398C5F30805C5F50075BD4228BFDB
:101650003D46FEF729FE0028B3D1039963693C316A
:10166000C3F308032A46194440463CF0F4F9D9E78D
:1016700007269BE72DE9F04F9B4685B0002389465E
:10168000CBF8003003A904461746FEF7A7FD06462F
:1016900010BB667C06BB237C9A0740F1A780636978
:1016A000FB4200D3DF439FB16369C3F30802002A02
:1016B0007FD1039AD289013A12EA532201921ED1B4
:1016C00073B9A06870B901462046FFF7A7F848B97A
:1016D000237C43F040032374304605B0BDE8F08F0F
:1016E000A169F1E7012802D102266674F4E7431CE0
:1016F00001D10126F9E7A368A06103B9A0600398AE
:10170000E369826B9A4203D1FEF7C8FD0028F0D14D
:10171000DDF80CA0A1695046FEF746FD0028E3D095
:10172000019B7D0A03EB000835D0019ABAF80E3010
:10173000DAF800002A449A4284BF019A9D1A2B4687
:101740004246494601F024F80028D2D1DDF80CA029
:10175000DAF83810A1EB0801A9420BD201904FF43E
:10176000007209EB41210AF13C003CF074F9019B45
:101770008AF807306D026369E2682B4463619A421C
:101780002CBFE260E360DBF800302B44A944CBF8C7
:1017900000307F1B87E76269E3689A4207D35046AF
:1017A000FEF77CFD0028A4D1039BC3F83880C4F861
:1017B0001C806569E1690398C5F30805C5F50075E6
:1017C000BD4228BF3D46FEF76FFD002891D103982A
:1017D00063693C30C3F308032A46184449463CF089
:1017E0003AF9039B4FF00102DA71C4E7072673E769
:1017F000F7B501A90446FEF7F1FC054660BB237C62
:101800005B0629D549F05EFA216A07460198FEF782
:101810004BFD054600BB666AF37A43F02003F37282
:101820002068A26831460530FEF709FDE16806F13F
:101830001C00FEF7B1FC394606F11600FEF7ACFCC1
:101840000198B5740123F574C371FFF7E8F8237CA0
:1018500023F0400305462374284603B0F0BD13B5BA
:101860000446FFF7C5FF28B901A92046FEF7B6FCDC
:1018700000B9206002B010BD70B50E468CB00021DA
:101880000546FEF76DFD044668B90CA8314640F8E0
:10189000305DFFF72DFC044690B99DF92B30002BED
:1018A00004DA029BEB6120460CB070BD9DF8063057
:1018B000DB0609D507996879FEF7B3FCE861F2E722
:1018C000042808BF0524EEE70524ECE72DE9F047DE
:1018D0000D460021D2B0297080469146FEF740FDAA
:1018E000074688B9D8F81C30CDF8008002934E46E0
:1018F000DDF808A0BAF1000F0AD14E4559D12F23C7
:101900002B70013500232B70384652B0BDE8F087AC
:1019100020216846FEF740FF002858D1069940462E
:10192000FEF7C2FC044600284FD1079998F805003D
:10193000FEF777FC214602906846FEF72DFF00284F
:1019400045D100216846FFF74DF9044668B907996B
:1019500098F80500FEF765FC50450BD02146684617
:10196000FFF7A8F804460028EBD0042C14BF274644
:101970000227C7E768460CA9FEF7DFFF20460CAB3D
:1019800003449B7D6BB9C31CB34222D8321A034671
:101990002A4443B9731E1B1A2F22C0430644EA543B
:1019A000A6E70130EBE7013B0CA91944897DD1542E
:1019B000EFE7A9192B4611F8012B03F8012B5A1B4D
:1019C00032449145F7D81D469CE707469AE70746FB
:1019D00098E7112796E7F7B50D4601A90446FEF7EB
:1019E000FDFB064600283FD1667C002E3CD1E36813
:1019F000AB4204D2227C12F0020F08BF1D46002227
:101A0000636962610DB928461CE0019AD7897F029B
:101A100003B3013B6A1EB3FBF7F1B2FBF7F28A4254
:101A200018D37A421340A1696361ED1A002940D1AD
:101A30000020E36865699D4281BF237CE56043F037
:101A400040032374C5F3080575B1E36983420BD0E5
:101A5000E06109E0A16879B92046FEF7DFFE0128C0
:101A6000014604D102266674304603B0F0BD013051
:101A700001D10126F7E7A160A161D7E73B4463618B
:101A8000237C9A07A5EB070506D52046FEF7C6FE80
:101A9000014628B905460FE02068FEF723FE0146FF
:101AA0004B1CE6D00129DDD9019B1B6A8B42D9D999
:101AB000A161BD426369E1D863692B446361C5F3E9
:101AC0000803002BB4D00198FEF76EFB0028C9D0A4
:101AD00000EB5520ADE770B5054616460C4621B320
:101AE0000021FEF73DFC68B9256031462046FFF72E
:101AF000FFFAE0B994F92B30002B0BDBA379DB065E
:101B000003D40520002323600EE06879E169FEF725
:101B100088FBA0606B89A38000212046FEF73CFE75
:101B20000428EED00028EDD170BD0920FCE7042880
:101B3000E7D0E7E713B501A90446FEF74FFB00B96C
:101B4000206002B010BD73B50D4601A90446FEF732
:101B500045FB20B9014620461DB9FEF71DFE02B027
:101B600070BDFFF73FF810F0FB06F8D1294620467C
:101B7000FEF7E3FE31462046FEF79CFF042808BF2F
:101B80000020ECE770B50E468CB0002104461546E7
:101B9000FEF7E6FB0094044670B931466846FFF74D
:101BA000A7FA044640B99DF92B30002B07DB1DB185
:101BB00029466846FEF7C1FE20460CB070BD0624DB
:101BC000FAE72DE9F0478A4600210446FEF7C8FBF4
:101BD000054640B9D4F82090A369A9F102029342C6
:101BE00004D8CAF800302846BDE8F0876379012B95
:101BF00017D10227064639462046FEF773FD431CDF
:101C00003CD001283CD000B90136236A0137BB42E1
:101C1000F1D8CAF80060237AA66143F00103237269
:101C2000E1E7E16A074680460646B8F1000F0AD1AF
:101C3000204601F10108FEF737FB18BB414604F1CD
:101C40003C074FF400786379022B0CD17A783B780B
:101C500053EA022308BF01360237A8F10208B9F19E
:101C60000109E2D1D5E73846FEF78EFA30F070432D
:101C700008BF01360437A8F10408F0E70125C8E7DA
:101C80000225C6E70546C4E7F0B50E4699B0022125
:101C90000546FEF765FB0095044680B93146684667
:101CA000FFF726FA044650B99DF82B3098063BD42E
:101CB000190639D49DF80670FA0703D50724204683
:101CC00019B0F0BD07996879FEF7ABFAFB06064636
:101CD0000BD46846FFF71CF804460028EFD1D6B9AC
:101CE0002846FEF79CFE0446E9E7EB698342E5D00F
:101CF0000E9021460CA80C95FEF74EFD04460028D8
:101D0000DDD101460CA8FEF76DFF04460028D5D0B2
:101D10000428D4D1DDE7024631466846FEF7D6FDF9
:101D200004460028DCD0CAE70624C8E72DE9F04FB6
:101D30000E468DB002210446FEF712FB00940546C4
:101D4000002840F0A38031466846FFF7D1F90546E8
:101D5000002800F09F80042840F098809DF82B1008
:101D600011F0200140F098806846FEF757FDE389A6
:101D70005B020393064600285CD001285CD0431C1C
:101D80005CD02046FEF78AFA054648F09BFF824663
:101D9000002D49D131462046FEF706FA04F13C07F2
:101DA0004FF400722946814638463BF094FE4FF0CE
:101DB0002033E3637B60C7F807302E2384F83C3080
:101DC000102384F84730514604F1520004F105080D
:101DD000FEF7E2F9324639464046FEF730FA04F1A2
:101DE0005C013B460A4653F8040B42F8040B8B4255
:101DF000F9D12E2384F85D306379029A032B03D145
:101E0000236B934208BF00224046FEF718FAB4F84D
:101E10000EB0D944A9EB0B02BBF1000F10D16846FC
:101E2000FFF748F80546F0B1002231466846FEF754
:101E30004DFD2BE00725A8E70225A6E70125A4E72D
:101E40004FF00103A263E3712046FEF704FA054652
:101E50000028E9D101464FF4007238463BF03BFEC2
:101E60000BF1FF3BD6E7079D514605F11600FEF743
:101E700093F9294632464046FEF7E1F91023EB720A
:101E80000123E3712046FEF7CAFD054628460DB042
:101E9000BDE8F08F0825F9E70625F7E72DE9F041C1
:101EA0000C469EB0022106469046FEF759FA0028DD
:101EB0007CD11EAF214647F8606D3846FFF718F910
:101EC000002873D19DF8433013F0A00F71D10D9C01
:101ED0006A4604F10B031B3418685968154603C59C
:101EE0000833A3422A46F7D1186828601B792B7162
:101EF0003D460FCD12AC0FC40FCD0FC495E80F00B7
:101F000084E80F00414612A8FFF7F2F848B9149A86
:101F1000089B9A4203D1169A0A9B9A4203D0082042
:101F200044E0042842D112A8FEF7C4FF00283DD1A6
:101F300019990DF1020301F10D020DF1120053F890
:101F4000044B42F8044B8342F9D1188810809B78E7
:101F500093709DF80030012443F02003CB72F4719C
:101F6000CB7ADB061BD5089A149B9A4217D070795E
:101F7000FEF757F901463046FEF716F90146D0B193
:101F80003046FEF791F988B996F85D302E2B06D1D0
:101F9000149A06F15C01701DFEF751F9F471384690
:101FA000FEF7B6FE10B93046FEF739FD1EB0BDE8AB
:101FB000F0810620FAE70220F8E700002DE9F04161
:101FC0000D4692B002210646FEF7CAF9044630BB20
:101FD00006962A46531B12F8011B1F29FAD82B44D8
:101FE0009D42A3EB050722D013F8012D202AF7D03C
:101FF00000248DF80040A846012118F8010B3BF0A1
:10200000E7FD3BF003FE00213BF0E2FD30B1344A36
:1020100012F8013F002B5CD09842F9D106242046EB
:1020200012B0BDE8F0810DF80430013431E0002732
:1020300035E0E52313700123F3713046FEF7EFFC22
:102040000446ECE70428FBD1002FE8D0012106A8C4
:10205000FEF7A5FD04460028E1D1202201460D9897
:102060003BF039FD0D9B0822DA720D9A28E0092C0D
:10207000D4D812AA631C1444020A04F8482C12AAE9
:102080005C1C134403F8480CA8EB0503BB42B3D314
:1020900020230A2CC7D99DF80030E52BBED00021A3
:1020A00006A80891FEF778FB04460028B7D1012165
:1020B00006A8FEF797FD0028C4D10D9A002FB8D0CE
:1020C0006B4603CB1060516019889B789372118125
:1020D000B1E7FF28CBD80A2CA0D82346CFE700BF12
:1020E0000DA406082DE9F04F06688BB01C460023AE
:1020F0004371039103790293154605210DF11F02E7
:10210000304600F073FB9DF81F30DF0700F184823A
:10211000580700F1838208AA0321304600F066FBCD
:1021200030B9089A531EB3F5004F01D21A4201D0BC
:102130000123089345B15C4BA5F500729A4203D97F
:1021400013200BB0BDE8F08F6A1E2A40F8D1149B13
:1021500023F4FF7323F0010305930BB90E20F0E77E
:10216000029B002B61D001232146304600F0E6FAA5
:1021700008B10120E5E794F8FF2194F8FE3143EA25
:1021800002234AF655229342E8D1029B04EB031145
:1021900001F5D7710B79002BE0D001F10800FDF7B4
:1021A000F3FF814601F10C00FDF7EEFF0990DDF829
:1021B00024A0BAF1310FD1D96B0A802BC0D8039A71
:1021C00012F0020E08D002F00701022900F034825A
:1021D0001146C90740F130820399CA07B0D5002BD8
:1021E00053D132484FEA1A354FF0010830F8021F38
:1021F00009B1A94231D940F6F571BAFBF8F58D4223
:102200009BBF05EB4505013502356D088CBF6D00A0
:10221000033505F2FF154FF020018CBF022701277F
:102220006D0A4FF0010B019128E209AA0121304605
:1022300000F0DCFA00289CD1039B13F0080F099BE7
:102240000CBF4FF03F094FF000094B4586D3A3EB7D
:1022500009030993ABE75B00F4E14FEA4808C5E7DF
:10226000022F25D1049A4FF6F5718A420FD9002B1F
:1022700040F0DE814FEA4803402BB0D9BEF1000F99
:1022800040F0DC81802B3FF669AF9846B3E7049AB3
:1022900040F6F5718A4212D8002B7FF45FAF4FEA07
:1022A0004803802B9BD959E700FEFF001CA40608B9
:1022B000049A40F6F5739A423FF650AF01274FF467
:1022C0000072002120463BF006FCD54B84F80EB08E
:1022D0001A6822605A6862601A899B7A2281032FE9
:1022E0004FF00202A3724FF00003E3722273CBF3AC
:1022F000072B4FF00102637418BF0223BAF5803F29
:1023000084F80D8084F80FB02274A37480F01B81D0
:1023100084F813A0CAF3072A84F814A0F82363757D
:102320003F2323764FF0000AFF2384F819A0A376F9
:1023300084F81BA0494604F11C00FDF72DFF032F74
:1023400040F0078148F0BEFC014604F14300FDF770
:1023500023FF294604F12400FDF71EFF022384F821
:102360002C30012384F83030062384F83230802367
:1023700084F84030292384F84230AA4B84F82DA0F9
:1023800084F82EA084F82FA084F831A084F833A01C
:1023900004F1470203F1100153F8040B42F8040B57
:1023A0008B42F9D119889B7893704FF0550B6FF0E1
:1023B00055031180304684F8FF3184F8FEB10123C3
:1023C0004A46214600F0E4F9824600287FF4D1AE67
:1023D000032F3FD1012309F106022146304600F0C8
:1023E000D7F94FF40072514620463BF074FB52235C
:1023F000237063706123A37084F8E731049B41224A
:102400007221E27084F8E41184F8E51184F8E62181
:10241000591E04F5F470FDF7BFFE022384F8EC3179
:102420006FF0550384F8FF3109F1070201232146BB
:1024300084F8EDA184F8EEA184F8EFA184F8FEB150
:10244000304600F0A5F9012309EB0302214630468E
:1024500000F09EF9059A002120463BF03CFB032F3B
:1024600040F09480F8232370FF236370A370E3701F
:1024700023716371A371E37123726372A3720F23DB
:10248000E372149B4FEA532B5D45AA4628BFDA46F8
:1024900021465346009A304600F07AF9014600285A
:1024A0007FF467AE4FF4007220463BF014FB009BB4
:1024B000B5EB0A0553440093E6D1019B032F08BFF7
:1024C00043460193019B009A5B4528BF5B4621462A
:1024D00030461D4600F05CF900287FF44AAE009BB0
:1024E0002B440093019B5B1B0193EBD1032F56D030
:1024F000099BB3F5803F54D2022F14BF0125042558
:10250000029B002B4FD0002201232146304600F0D1
:1025100015F9024600287FF42CAE029B04EB03134E
:1025200083F8B25101232146304600F031F90028EA
:102530007FF41FAE00221146304600F057F90030FC
:1025400018BF0120FDE5514604F12000FDF724FEEF
:10255000E4E648F0B7FB014604F12700FDF71CFE56
:10256000C5F30723E375802384F82430292384F8F6
:1025700026302D4BA57504F12B0203F1100153F801
:10258000040B42F8040B8B42F9D10BE7012F2749CA
:10259000204618BF6FF00701FDF7FEFD71E70C251F
:1025A000AEE70625ACE7039B1B07C3D44FF40072CC
:1025B000029920463BF08FFA552384F8FE31099AA0
:1025C00084F8C251AA2384F8FF319DF8083084F8BA
:1025D000BE3184F8C1314A4443F6C163B2FBF3F221
:1025E000FE2384F8C331930843F03F03012784F8A6
:1025F000C43184F8C521494604F5E37084F8BF71FD
:1026000084F8C071FDF7C8FD099904F5E570FDF780
:10261000C3FD3B46029A86E7032092E50A2090E537
:102620003AA4060846A406085AA40608F8FFFF00C4
:10263000BEF1000F3FF492AD002B59D12D484FEA67
:102640005A45012330F8021F19B1A9427FF603AEA3
:102650000021BAFBF3F0284F8500A0F57F40F63843
:1026600005F20725B8424FEA55253FF677AD984663
:102670000B46002101914FF0200B032709EB0B01C2
:1026800000910199DDF820C06818009908440CF108
:10269000FF31032F0144CCF1000C08BF009A01EA7E
:1026A0000C01A1EB000101BF52188B4411460091AF
:1026B00018BF6D18C9EB081108448245FFF44EADF0
:1026C000019AAAEB0B01491B032FA1EB0201B1FBFD
:1026D000F8F204927FF4C4AD4FF6F5718A423FF6EA
:1026E000EEAD002B7FF43AAD5FEA58033FF436AD10
:1026F0001946AEE72AA40608FFFFFE0F10B50446F0
:1027000008B9012010BD8388590705D4A369002B9F
:102710000CBF04200020F5E701230322C0E90C23AD
:10272000002100F12802022028F067FB024B9842AA
:10273000ECD04308EAD0E4E7A0CD050830B50D465B
:1027400085B0114600B3848814F0010408D00469F0
:102750001A462846A047003018BF012005B030BDFA
:102760000A4A0092012291401143016101925B02E9
:10277000C0F814D000F1080221460220CDE902354C
:1027800028F03BFB2046E9E70420E7E70CB7050803
:1027900030B50D4685B0114610B3826912B38488F6
:1027A00014F0010408D0046A1A462846A0470030F5
:1027B00018BF012005B030BD0B4A009201229140A4
:1027C0001143016201925B02C0F824D000F11802AB
:1027D00021460220CDE9023528F00FFB2046E9E72B
:1027E0000420E7E70220E5E70CB7050810B514461A
:1027F000002866D083885B073DD5062961D8DFE8CD
:1028000001F0040F1D336036590007240123C0E98D
:102810000C4300F128020021022028F0EEFA21E00A
:1028200009210123C0E90C1300F128020021022034
:1028300028F0E3FA29F018FF206013E001230B22AF
:10284000C0E90C23002100F12802022028F0D5FA6B
:102850001E4B834203D14FF40073238002E029F022
:1028600003FF2080002010BD01232360FAE7FFF75B
:1028700045FF2070F6E7062923D801A353F821F07D
:102880009D280008AB280008572800086928000880
:10289000C32800086F280008B5280008836A93B190
:1028A000002100F128020846B7E7002100F13002BC
:1028B0000846BDE78369002B0CBF04230023237067
:1028C000D0E70420CFE71846CDE700BFA0CD05082C
:1028D000086832F0BBBA000037B51D46043001ABC2
:1028E0001446FEF7C7FE38B1064B1B5C2B604FF059
:1028F000FF34204603B030BD019BA342F9D01C2316
:10290000F4E700BF180C060813B51C46043001ABF1
:10291000FEF720FE30B1044B1B5C23604FF0FF300C
:1029200002B010BD0198FBE7180C06082DE9F8432A
:102930008146506890460F462FF0F0FC254A01383A
:10294000002410F8013FD3B92C201DF0A7FB064648
:10295000054646F8047BD8F800002FF0DFFCE3B210
:102960000246314609F13800FEF724FD074640B320
:1029700028461DF0ADFB184BD85D29F033F9722BBA
:1029800013D008D8612B19D0622B0CD02B2BD8D1A7
:1029900044F00304D5E7772B0AD0782B0BD0742BA7
:1029A00008BF1746CDE70D4FCBE744F00104C8E759
:1029B00044F00A04C5E744F00604C2E744F01204F8
:1029C000BFE7E30603D529693046FFF704F8284638
:1029D000BDE8F8839C0B0608180C0608600B060877
:1029E00030B587B0054603AC084611461A46064B7B
:1029F00000930194032329F0C9FA224629460020B6
:102A0000FFF794FF07B030BDF00B06081FB5054B6C
:102A10000393CDE9011201AA0349FFF787FF05B02F
:102A20005DF804FBA0CD05089C0B060870B50546B3
:102A300008460C4629F036FD234602460249284640
:102A4000BDE8704000F08ABFE40B0608022970B5AB
:102A5000044615461E4613D15368012B0AD0022B9B
:102A60000CD01BB91168201DFEF7B5FFA3692B60C0
:102A7000002070BD81692B681944F4E70169FAE709
:102A800001290AD10430FEF7B3FE0028F0D0084B2C
:102A90001B5C33604FF0FF30EBE7042906D143683D
:102AA000002BE5D00430FEF7DAFEEEE71623F0E760
:102AB000180C06082DE9F74F06299DF8305010D85C
:102AC000012905D93F23037001300023037001E081
:102AD0000029FAD1012994BF0020012003B0BDE8EC
:102AE000F08F10EE104A002C25DAB4EE400AF1EE19
:102AF00010FA20D62D25441C0570B1EE400A9FED3A
:102B0000C47A0190F0EEC07AF4EE477A02F0200E1B
:102B1000F1EE10FA5FFA8EF513DD85F049032370AC
:102B200085F04E0385F046056370E11CA570002317
:102B30000B70081AD2E715B1441C0570DFE7044694
:102B4000DDE7B4EE400AF1EE10FA08D745F04E0387
:102B500085F0410523706570E11CA370E7E7002B49
:102B600042F02002B8BF0623672A02D1002B08BF1B
:102B70000123251A0139491B10EE105A002D4BD1A3
:102B8000662A3BD15D1C8D42A8BF8B1E00276621A3
:102B90005D1C0091BC463E4623EAE373009965291B
:102BA00040F02C815D1C4FF000084FF02E0AB2EE71
:102BB000047A454540F38380FDEEC07A04F10109B3
:102BC00017EE901A0029ABBF17EE901A302101F1D1
:102BD000300B2170A8BF84F800B0E04504D11BB1D0
:102BE00004F1020984F801A0F8EEE77A08F101087F
:102BF00030EE670A4C4620EE070ADAE75D1D8D428B
:102C0000A8BF8B1F652A00924FF0000500F0EC80F2
:102C10002F46AC462E46BFE7B5F17E5F80F08F8031
:102C2000DFED7C7ADFF8F4C1DFF8F491B4EEE70A67
:102C3000F1EE10FA4FF00005ACBF4FF031084FF045
:102C4000300820272E46BCEC017AB4EEC07AF1EEB3
:102C500010FAC4BF09EB050A9AED007A05F10405E4
:102C6000C4BFF61920EE070A182D4FEA6707EAD10C
:102C700010EE105AB5F17E5F45D2B4EEE70AF1EEE0
:102C800010FA3BDB002E0CBF2B272D27B7EE000AD6
:102C9000662A03D0672A48D1042E46DC672A04BF7F
:102CA00006F1FF355B195D1C8D42A8BF8B1E84F8B1
:102CB000008053BB662101341D461F460091662AE1
:102CC00040F0B080AE4240F3098197B10A2196FBF3
:102CD000F1F393FBF1F201FB136601FB12324EF0AC
:102CE000450E3032303684F800E06770A270E6702E
:102CF000043400232370019BE01AEFE6F2EE047A1D
:102D000020EE270A01362D27C2E72E2161701D46CD
:102D100002343021013E69D01DB92F464FF0FF3CEF
:102D200045E004F8011B013DF4E74D1F9D4261DCC5
:102D3000672A5DD08B1F00920025AC462CE700254A
:102D4000DFF8DCC0DFF8D48020272E46FCEC017AC7
:102D5000F4EEC07AF1EE10FA9CBF08EB0509D9ED4C
:102D6000007A05F104059CBFF61920EE270A182DFC
:102D70004FEA6707EAD1FDEEC07A17EE905A092DA7
:102D8000C2BFDFED257A013620EE270A662A11D16F
:102D90008E4212DA9D1901358D4204DB8B1B023BFA
:102DA000591C08BF0023F5180135B44600276621D9
:102DB0000091F1E6652A40F08C804D1F9D4200DCB9
:102DC0008B1F00252B27AC466521F1E71D1D8D4289
:102DD00000DB4B1F9E4204DB6721009100252B275F
:102DE000ABE7711C5B1ADEE72B2712E7374695E746
:102DF0002B46A0E700250092AC46CFE60099672954
:102E00007FF4D1AE0BB11D46CDE601252B46CAE6B7
:102E1000FFFF7F7FF8FF7F3FCDCCCC3D8CAE050818
:102E2000A4AE0508F1EE047AB4EEE70AF1EE10FA6A
:102E300026DB651E4FF03009A84618F801C9BCF121
:102E40002E0F3BD0ACF1300ABAF1090F29D9681C1A
:102E50000578302D14D190F801C0BCF12E0F31D17E
:102E6000009966292ED02D2F80F800C0457027D1FB
:102E7000013E08BF2B272146884225D3312101700E
:102E8000672A7FF422AF002B3FF41FAF23461C4676
:102E9000013B14F8012C302AF9D02E2A08BF1C4619
:102EA00013E7BCF1390F05D00CF1010C85F800C017
:102EB0002846CDE7A84288F80190C9D04546BBE72F
:102EC0000136D8E70134D6E711F8015C01F8015961
:102ED000D2E7672A3FF47AAF00927FE7F1EE047AF7
:102EE000B4EEE70AF1EE10FAA3DAEEE608B504460E
:102EF00031B1054B03608A6B096800232BF05CFB42
:102F000020461DF09FF800BFA0C105082DE9FF472E
:102F10001F460192461812B1023A222A34D80546B9
:102F2000B5422C4639D220781EF0B4F901358046DE
:102F30000028F5D123782B2B29D12C46311B204694
:102F400001AA27F00AFC2518A9460024B1454B46E2
:102F500026D3B8F1000F00D06442640044F00104AD
:102F6000AB4209D01D46B5422B4640D218780135F8
:102F70001EF090F90028F6D11F49019A1F482BF046
:102F80007FFA3946FFF7B2FF1D4828F057FC2D2B7A
:102F900004BF2C464FF00108D0E74FF00008CDE702
:102FA00019F8012BA2F1300ABAF1090F07D942F042
:102FB0002002A2F161011929CBD8A2F1570A019987
:102FC0005145C6D9204635F0E7FA28B9019B03FBE5
:102FD00004A494EA4403B9D504A8019B40F8045D15
:102FE0004246711B2CF0FCFC039B0446B8E7C3D19E
:102FF000204604B0BDE8F087F9AE050890C2050888
:10300000D6AE05082DE9F04F2DED028B83B01746A3
:10301000DDF83880019346180446B442254680F016
:10302000158128781EF036F9013482460028F4D143
:103030002B782B2B09D125468146B4420CD300278F
:103040009FED898A3B463A46CAE02D2B03D125469F
:103050004FF00109F1E781462B7843F02003692BFB
:1030600032D1AB1C9E4240F2F4806B7843F02003D7
:103070006E2B40F0EE80AB7843F02003662B40F0DF
:10308000E880EB1D9E4205F103041AD9EB7843F06A
:103090002003692B15D12B7943F020036E2B10D11F
:1030A0006B7943F02003692B0BD1AB7943F02003FC
:1030B000742B06D1EB7943F02003792B01D105F174
:1030C00008049FED6A8A14E06E2B3ED1AB1C9E4231
:1030D00040F2BF806B7843F02003612B40F0B98051
:1030E000AB7843F020036E2B40F0B3809FED608AF5
:1030F000EC1CB9F1000F01D0B1EE488AAC4209D006
:10310000B442234680F08380187801341EF0C2F860
:103110000028F5D1574958482BF010FA4146FFF7DF
:10312000E5FE02200C4694F800C0ACF1300ABAF17A
:10313000090F04F101012BD8022815D10BFB02A2C3
:10314000B142EFD300270C4646E04FF0000E2C466C
:103150007346724670469FED448A9FED487AF2EEC0
:10316000046A4FF00A0BDEE7B4EEC78AF1EE10FAFC
:103170000BD507EE90AAF8EEE77A0128E8EE267A5A
:10318000B0EE678A41D1013BDAE728B90133D7E7CE
:1031900020B9BCF12E0F03D10120D1E7022813D0B2
:1031A0004CF0200065280FD18E425AD960782B2828
:1031B00004D1A11CB142ADD00220C1E72D28B0D16D
:1031C000A11C4FF0010EF5E737B14CF0200CBCF11B
:1031D0006A0F0CBF0C460027BEF1000F00D0524210
:1031E000134413F1250FBEBFDFED257A253328EEFA
:1031F000278A07EE903AB2EE040AF8EEE70A3BF0AF
:1032000081FBBA4628EE008A73E7002098E781D157
:10321000BAF1000F0AD09FED140AF0EE480A03B08D
:10322000BDEC028BBDE8F04F2AF00ABA019B23B136
:10323000DFED0D0AB0EE480AF1E7B0EE480A03B040
:10324000BDEC028BBDE8F04F2BF0D8BA4FF000096F
:10325000F5E6B9F1000F3FF45DAF2C469FED028A11
:103260004AE73FF457AF6DE7000000000000807FA1
:103270000000C07FBCAE050890C20508EC78AD60C8
:10328000EA1C0802084611463FF01CBF70B505460F
:1032900008460E463AF050FC044620B102466B68E0
:1032A000286831469847204670BD00002DE9F74F49
:1032B00001919DF8301091460D9A11F0DF0F0646EE
:1032C000A2EB09023DD030290CA9244F0EBF4FF0CC
:1032D00010080F464FF0010813F0800435D0022487
:1032E00092FBF4F4151B002C36DDA246D045C346F4
:1032F000A8BFD346736830685A463946AAEB0B0A12
:103300009847BAF1000FF1DCB9F1000F05D07368EE
:10331000019930684A4698474C44002D0DDD2C44F5
:10332000A845C146A8BFA946736830684A463946D1
:10333000A5EB09059847002DF2DC204603B0BDE857
:10334000F08F074F4FF01008C6E713F0010501D1C9
:103350001446C8E71546D7E70024D5E7609A050864
:103360004F9A05082DE9F04389B007460020119DCA
:103370009DF84880139E8DF80F0002B3814219DA40
:103380002D228DF80F204942109A08ACA2F10A0CA8
:103390000DF1100EB1FBF3F003FB1012092A8CBFE4
:1033A0006244303204F8012D744501460DD00028E6
:1033B000F0D10AE0A80726D52B228DF80F2000298E
:1033C000E2D108AC302304F8013D15F040099DF826
:1033D0000F301CD023B30122CDE900822B460DF122
:1033E0000F013846FFF762FF013E814608AACDE98A
:1033F00000862B46121B21463846FFF757FF4844EC
:1034000009B0BDE8F0836A07D9D52022D5E7002BA3
:10341000ECD004AA9442E9D904F8013C013CE5E768
:103420009946E3E72DE9F04F91B082461C46C80764
:103430009DF86C301A9D05930F469146DDE91C8678
:103440000BD4B90703D13A68804B9A4205D038466D
:1034500029F00AF9400040F0010715F0810306D178
:10346000059A302A03D1B045B8BFB0461E4638464B
:103470002CF0C5F900280DF1200B18DBAA0712D596
:103480002B238DF820300DF12103E1B2EC061DD580
:10349000B9F1020F0DD11A46302002F8020B481C78
:1034A0005870134612E06B0701D52023E9E75B460D
:1034B000EBE7B9F1080F3ED1A8054FF030021A70C2
:1034C00045BF01F10E025A7001330233002215F09C
:1034D000200F1A70A3EB0B03049314BF2C23134685
:1034E000012E0CA8C8BF45F04005099015F0400416
:1034F0004FF01000CDE90A028DF81F20CDE902132C
:1035000023D0CDE900923B460BAA0AA909A82CF0CA
:1035100043F803782D2B814640F086800B9C8DF874
:103520001F30013C012E00F101090B9400F389804A
:1035300000273C4636E0B9F1100FC7D11A463020BB
:1035400002F8020B01F11700AAE708ABCDE90093DE
:103550000BAA3B460AA909A82CF01EF8012E8146A9
:103560001FDD0B9CB442B8BF3446A04516DD15F0F4
:103570000107A8EB040401D02746002425F001052B
:103580004CB120230093002301941A463049504641
:10359000FFF78CFE04463023059303E000273C46EA
:1035A000ECE7274669061DD59DF81F305BB1002367
:1035B0000122CDE900320DF11F015046FFF776FEE2
:1035C00008F1FF380444049B63B100230122CDE9D4
:1035D00000325946049A5046FFF768FE049B0444A3
:1035E000A8EB0308059B0093012ED8BF4646019621
:1035F0002B460B9A49465046FFF758FE04444FB1FC
:1036000020230093002301971A4611495046FFF7E3
:103610004DFE044409980CAB984201D01CF058FDB3
:10362000204611B0BDE8F08F012E81DD0B9C9DF886
:103630001F30B442B8BF344603B10134049B1C446C
:1036400093E7B442B8BF3446F7E700BF30C8050877
:103650007FA806082DE9F04316468BB0B2078046D6
:103660009946129F3CD416F0040F0CBF0023202370
:1036700000930A46139B202102A8FFF71BFAF305CB
:1036800004460DD5431C1F2B0AD80AAA1444252230
:1036900004F8202C0AAA1A44002102F8201C1C4617
:1036A00016F040051ED09DF808302F2B4FF0000378
:1036B0001AD8012202A9CDE900324046FFF7F6FDF3
:1036C000013F0546013C0DF10901CDE90097334664
:1036D00022464046FFF7EAFD28440BB0BDE8F083E0
:1036E0002B23C5E702A9F0E702A91D46EDE700007C
:1036F0002DE9F04F824689B0144600250E46334628
:1037000013F8012B82B9B14212D30B78002B00F0D1
:103710001C81013120234FF000080F780E464A1C0F
:1037200087B94FF0FF324EE0252AECD01E46E6E77F
:10373000771ADAF80430DAF800003A4698473D4440
:103740003146E2E72D2F03D148F001081146E4E7A6
:103750002B2F02D148F00208F8E7202F02D148F0C1
:103760000408F3E7212F02D148F00808EEE7302FD4
:1037700022D148F040083B46E8E70A2000FB072733
:10378000303F0E4611F8012BA2F130000928F4D980
:103790002E2AC6D172782A2A10D008460022064660
:1037A00010F8011BA1F1300CBCF1090F0BD80A264F
:1037B00006FB0212303AF2E70027E2E722680236FF
:1037C00022EAE272043431786C2908BF013696F897
:1037D0000090B9F1000F00F0B880B9F1640F00F06B
:1037E0008E8026D8B9F1500F2DD00ED8A9F1450101
:1037F000022940F29380DAF80430DAF8000001225E
:10380000314698470135A3464BE0B9F1620F3BD0F2
:103810004DD8B9F1580FEED1A9F11709CDE902370A
:1038200004F1040BCDF804805FFA89F300931023B0
:1038300063E0B9F1710F45D00DD8B9F1670F6DD9BB
:10384000B9F1700FD7D1CDE9023704F1040BCDF8EF
:1038500004806123EAE7B9F1750F45D0B9F1780F1B
:10386000DAD0B9F1730FC6D1511C04F1040B2468EE
:1038700005D1204604933AF05FF9049B0246CDE956
:1038800000372146434608E0226804F1040BCDE9E5
:103890000037434642B12F4904225046FFF706FD48
:1038A0000544711C5C4629E705222B49F5E708A968
:1038B000226801F8042D04F1040BCDE90037012240
:1038C0004346EAE707A92068CDE904321DF0F1FA82
:1038D000059A049B0146501CCDE9003704F1040B06
:1038E00008BF079A4346D8E7CDE902376123009322
:1038F00004F1040BCDF804800A23002209E0CDE98D
:1039000002376123009304F1040BCDF804800A23ED
:10391000012221685046FFF725FDC1E7073424F056
:103920000704D4E90001CDE9043251F027FB059AE0
:10393000049BCDE9007200EE100A4246494650460B
:1039400004F1080BFFF786FEAAE7284609B0BDE898
:10395000F08F00BF449A0508499A05080EB403B5D4
:1039600003AA52F8041B0192FFF7C2FE02B05DF8F1
:0839700004EB03B070470000F6
:020000040802F0
:10000000024B9A680260986000207047A8060020A2
:10001000024B9A6812689A60704700BFA8060020D9
:10002000C460056146618761C0F81C80C0F82090FB
:10003000C0F824A0C0F828B0C0F82CD0C0F808E060
:10004000FFF7DEBF0D4A08B593680BB921F0EEFE4D
:100050001968586091601846C468056946698769DF
:10006000D0F81C80D0F82090D0F824A0D0F828B088
:10007000D0F82CD0D0F808E001207047A806002066
:1000800010B50021044600F067FA18B914B12046F3
:100090000BF0BEFB10BD002100F05EBA10B50121CF
:1000A000044600F059FA18B914B120460BF0B0FB21
:1000B00010BDFFF7E5BF10B501220C4600F090FB24
:1000C00018B914B120460BF0A3FB10BD00F088BB9B
:1000D00000F014BB2DE9F0432A4C00254FF0030932
:1000E000D4F8E8710021013143189A0803F00303A2
:1000F000BA5C5B0042FA03F303F00303022BF2D075
:10010000D4F8F43109018A0803EB001081B300EB45
:10011000820103681A0728D1D4F8F4219A4224D81E
:100120009A1AD4F8F8614FEA921C120902F00307F8
:100130009E424FEA470718D9D4F8E8E11EF80C8030
:1001400048FA07F303F00303012B0ED109FA07F76E
:1001500047EA080705F180083F2D0EF80C709ABF9A
:1001600044F828200135C4F8FC3104308842D0D14D
:100170002DB1013D05F1800354F82300B0E7BDE83F
:10018000F08300BFA806002021F00F0370B5174AC6
:10019000174D1C1AE400A2FB0424640A0219A3EB05
:1001A0008416C5F8F02100212246C5F8F831C5F8BB
:1001B000EC41C5F8E801C5F8F4611DF08CFCA20023
:1001C0000732D2080021D5F8F0011DF084FC00238D
:1001D0004FF480314FF0FF32C5F80013C5F8082303
:1001E000C5F80C33C5F8043370BD00BFF32C23FAF7
:1001F000A8060020034AB2F800330133A2F8003306
:10020000704700BFA8060020034AB2F80033013B44
:10021000A2F80033704700BFA8060020034BB3F8D4
:100220000003003018BF0120704700BFA80600205F
:10023000F8B51C4DB5F8003300220133A5F80033A2
:10024000C5F80423C5F8FC212C1F05F5E876032723
:1002500054F8043F1A0719D1D5F8F401834215D395
:10026000181AD5F8F8114FEA901C000900F00302A3
:100270008B424FEA420209D2D5F8E81111F80CE09E
:100280004EFA02F303F00303012B02D0A642DFD1A2
:10029000F8BD07FA02F242EA0E0201F80C20FFF75D
:1002A00019FFF3E7A806002031B3F8B5041F174E75
:1002B00004EB8105032754F8043F1A0719D1D6F837
:1002C000F401984215D8181AD6F8F8114FEA901C84
:1002D000000900F0030299424FEA420209D9D6F818
:1002E000E81111F80CE04EFA02F303F00303012BBE
:1002F00003D0A542DFD1F8BD704707FA02F242EA07
:100300000E0201F80C20FFF7E5FEF2E7A806002038
:100310002DE9F04F514ED6F8EC11D6F8FC3183B0F0
:10032000890000256BB3C6F8FC51F9B10024A2087E
:10033000D6F8E80104F00303825C5B0042FA03F3A1
:1003400003F00303032B05D001348C42EFD3D6F81E
:10035000FC31E7E72046FFF7BDFED6F8EC1101348B
:100360008900A142E3D8D6F8FC31DBE7B6F80033C8
:100370000022013BA6F80033C6F80C2303B0BDE809
:10038000F08F0029F2D09E461D464FF003084FF033
:10039000020A06E0032B56D0012B20D001358D42F6
:1003A000E4D2AF08D6F8E82105F00304D05D64007C
:1003B00040FA04F303F00303022B02EB070CE9D12C
:1003C000BEF1000FEAD008FA04F420EA04008CF829
:1003D0000000D6F8EC114FF0010E8900DEE74FEA7D
:1003E000D50BD6F8F02112F80B1005F0070941FAE9
:1003F00009FE1EF0010F5A44E5D02801D6F8F4C1D9
:100400005CF80030604493B16A460E210AF060FD4A
:10041000009A3AB10BF01EFCDDE900010BF000FC84
:100420000BF02EFCD6F8F02112F80B105A440123E1
:1004300003FA09F321EA03011170D6F8E83103EB5E
:10044000070CD85DBFE70AFA04F420EA0400D0558F
:10045000D6F8EC114FF0000E89009FE7A8060020A7
:100460003C4B2DE9F047D3F8F411D3F8F821D3F839
:10047000EC61D3F8E8710023C0E90133C0E903332C
:10048000C0E90533521A02601D46B6009E469C46DE
:100490001C461A4699461946984617F809304900ED
:1004A0000B4103F00303012B49D040D3022B02D1AF
:1004B000013545600134013296420ED04FEA92096F
:1004C00002F0030117F809304FEA410A43FA0AF330
:1004D00013F0030301D0012BDFD1012C11D0022C2A
:1004E00002D14169013141618169A14238BF846112
:1004F00096420FD0012B26D04FEA920902F0030159
:10050000CBE70169013101618169A14238BF846192
:100510009642EFD1C44503D99642C0F80CC017D11A
:100520002D014FEA0E13C0E90153BDE8F0870EF12B
:10053000010EC0F808E00CF1010C1C46BBE70135C8
:1005400045601C46B7E7E045E6D34FF0000CD3E723
:10055000E046FAE7A80600200F302DE9F04707092A
:100560005CD0654EB6F80033002B57D1B6F8023395
:10057000002B0D460CBF4FF001084FF0000851D181
:10058000D6F80C23D6F8ECC162454FF0000438D2FF
:10059000D6F8E801511E01441AE00134A7424AD9B5
:1005A00013F00C0F1ED10134A74240F29B8013F0D0
:1005B000300F1CD10134A74240F2978013F0C00FD6
:1005C0001AD10134A74240F293800132624518D219
:1005D00011F8013F13F0030FDFD013F00C0F4FF0B1
:1005E0000004E0D013F0300F4FF00004E2D013F01D
:1005F000C00F4FF00004E4D0013262454FF0000418
:10060000E6D3B8F1000F09D127F034FED6F80C2359
:10061000D6F8ECC162454FF00108B9D3002420465A
:10062000BDE8F087D6F80423D6F808339A42A7D35A
:1006300027F020FEA4E79200111B012C01F1010814
:1006400002F1010C08BF4FEA9C034FEA980408BF6F
:10065000C6F80C3308F003034FEA430E10F8049079
:10066000012303FA0EF3023143EA09038A420355D8
:1006700011D34FF0020E8808D6F8E84101F00303C9
:1006800014F800905B000EFA03F3013143EA09030A
:100690008A422354EFD2D6F8F4A1D6F804334FEAB5
:1006A0000819ACEB08020AEB09041F4412012046AA
:1006B0000021C6F804731DF00EFA85B10023D6F8A8
:1006C000F0114AF809304FEAD8020123885C08F09B
:1006D000070803FA08F848EA000801F802802046F3
:1006E000BDE8F08792000132A6E792000232A3E74C
:1006F00092000332A0E700BFA8060020F0B41C4E11
:10070000B6F800338BBB80B3D6F8F431D6F8F0518D
:10071000C01AC10904096B5C04F007070122BA4042
:1007200023EA02036B54D6F80C2383099342D6F8CC
:10073000E80138BFC6F80C33C15CA50804F0030318
:1007400003275B0007FA03F321EA0303435501344F
:10075000D6F8E801A50804F00303415D5A0041FA08
:1007600002F202F00302022AEBD0F0BC704700BF95
:10077000A806002010F00F031BD11849D1F8F4216E
:10078000824216D810B4D1F8F841844222D9801A96
:10079000D1F8E84181090209615C02F003004000E0
:1007A000014101F003010129184604D05DF8044B12
:1007B00070470020704701301318990803F00303B5
:1007C000615C5B0041FA03F303F00303022BF2D0F8
:1007D0000001EBE718465DF8044B7047A8060020BF
:1007E0008C46002800F086802DE9F84F874CB4F83D
:1007F0000053002951D0002D50D1D4F8F411D4F871
:10080000EC31A0EB01094FEA1917791C4FEA830E6E
:100810000CF10F068E454FEA161640F2F380D4F81D
:10082000E8A14FF001084FEA910B01F003031AF819
:100830000BB05B004BFA03F303F00303022B31D040
:1008400023B9013508EB0503B3422DD346454DD0FE
:100850002ED34544B5428246C0F0828007EB0802A1
:10086000374497420FD94FF0020C9108D4F8E801B1
:1008700002F00303455C5B000CFA03F301322B43E7
:1008800097424354F1D1A6EB080212010AEB08107B
:10089000002155461DF01FF901E07DB300252846D3
:1008A000BDE8F88F08F1010801318E45BBD1CDE7D5
:1008B0003E44314647444FF0030E4FEA910CD4F8C2
:1008C000E82101F0030312F80C505B000EFA03F369
:1008D000013125EA0303B94202F80C30EDD1D4F816
:1008E0000C33B6089E4238BFC4F80C630546284650
:1008F000BDE8F88F01466046FFF72EBED4F8F4112C
:10090000D4F8F061401AC1090509735C05F00707C6
:100910000122BA4023EA02037354D4F80C33D4F80A
:10092000E8618009984238BFC4F80C03315C05F0D7
:100930000303A80803275B0007FA03F321EA030374
:1009400033540135D4F8E861A80805F00303315C9D
:100950005A0041FA02F202F00302022AEBD09DE7AC
:100960004FEAD919D4F8F03113F8091007F0070746
:1009700041FA07F707F00101002A8FD06046FFF720
:10098000EBFD0546002889D04FEA081251461DF0BC
:1009900062F8B4F80033002B81D1D4F8F401D4F814
:1009A000F071AAEB0000C10906097B5C06F0070C98
:1009B000012202FA0CF223EA02037B54D4F80C332E
:1009C000D4F8E8718009984238BFC4F80C03395C48
:1009D00006F00303B0084FF0030C5B000CFA03F3BE
:1009E00021EA03033B540136D4F8E871B00806F05D
:1009F0000303395C5A0041FA02F202F00302022AB0
:100A0000EBD04CE74FF0010820E700BFA80600201C
:100A10002DE9F04F404BD3F8F801D3F8F421D3F887
:100A2000EC11D3F8E83185B00025821A03924FEA21
:100A3000810EA8462F460295AA46AB462E46A946E9
:100A40002C46AC462A4613F80C105200114101F016
:100A5000030101294DD046D3022902D10BF1010B2C
:100A60000136013474450CD04FEA940C04F00302B3
:100A700013F80C105000014111F0030101D00129BD
:100A8000E1D1012E0FD0022E08BF08F10108B542B6
:100A900038BF354674450DD001292ED04FEA940C4D
:100AA00004F00302CFE7B54238BF3546744507F17D
:100AB0000107F1D14FEA0A130093029B039A1749E9
:100AC0001748994538BF99464FEA0B13E2F746FF9E
:100AD000CDE9005943463A4612491148E2F73EFF34
:100AE00005B0BDE8F08F0AF1010A09F101090E46CF
:100AF000B7E70BF1010B0E46B3E7029A4A4528BF50
:100B00004FF00009CAD2CDF808904FEA940C4FF08C
:100B1000000904F0030296E7A806002064500508C7
:100B20003C9A0508885005082DE9F84F524F534963
:100B3000D7F8F4215248E2F711FFD7F8EC51AD0095
:100B400000F08680DFF870A1DFF87091DFF8308167
:100B5000002418E0D7F8E83113F80B3043FA06F612
:100B600006F00306022E6FD0032E6BD0012E44D068
:100B70002E2244494046E2F7F1FED7F8EC51013409
:100B8000AD00A54264D904F00306A0064FEA46066C
:100B90004FEA940BDED1AC4228D2D7F8E80110F826
:100BA0000B303341990721D1234604E0415C41FADF
:100BB00002F292074AD1013303F00302AB424FEA3B
:100BC00093014FEA4202F1D12A1B7F2A0ED99209E2
:100BD0002D494046E2F7C2FED7F8EC3125F03F043C
:100BE000B4EB830F34D24FEA940B00260AEA0412C6
:100BF00049464046E2F7B2FEACE7D7F8F411234B82
:100C000022018A589A4229D0214B9A422AD0214B5C
:100C10009A4229D0204B9A4222D0204B9A421FD090
:100C20001F4B9A4222D01F4B9A421FD01E4B9A4212
:100C30001ED01E4B9A421DD01D4B9A4214BF6822F3
:100C40004D2296E76D2294E73D2292E71D46BBE7D1
:100C500018490B48BDE8F84FE2F718BB542288E763
:100C6000532286E74C2284E7442282E7412280E730
:100C700046227EE742227CE7A80600201C50050899
:100C80003C9A05085C50050838500508CCDB05087F
:100C9000C8C90508ACBB0508FCD8050820D605085E
:100CA0000CB70508D0B6050890C3050820C4050890
:100CB000F8CB050860500508F0FF0F0054500508F8
:100CC000054B5B695A68824204D8801A043053F895
:100CD000200070471B68F5E7A8060020014441F298
:100CE0000553884204D398B2002808BF01207047FA
:100CF00010F8012B03EB43135340F2E7034B044A74
:100D00005A610022C3F8D421704700BFA806002012
:100D1000707D06082DE9F84F82468946FFF7DEFF11
:100D2000134B5C6983460CB920461CE0E66804F16D
:100D3000100707EB86063D46B54201D32468F2E76B
:100D4000A84658F8040B03885B450ED183784B45C1
:100D50000BD14A46514603301CF0DCFE28B96068CE
:100D6000ED1B00EBA500BDE8F88F4546E4E700BFAA
:100D7000A80600202DE9F04780460E46FFF7CAFF7F
:100D80000246002877D13D4CD4F8D401351DA0B1DE
:100D9000D4F8DC31D4F8D8112B448B420DD9294436
:100DA000FFF794F90746F0B90246D4F8DC11D4F8FD
:100DB000D401FFF78BF9C4F8D471D4F8D431F3B966
:100DC000802D2F4638BF80273846FFF764F9C4F8D6
:100DD000D40178B92846FFF75EF9C4F8D40140B9C8
:100DE00028460AF015FDD4F8D8312B44C4F8D83180
:100DF000E3E72F460023C4F8D871C4F8DC31D4F8F7
:100E0000DC91D4F8D4A131464D444046C4F8DC51BD
:100E1000FFF764FF0AEB09070AF809003246000AE7
:100E2000BE703E4478704146F81C00251CF013FE4D
:100E3000F5706369D3E90203834212D30230C00024
:100E4000FFF729F9636910B998684000C9E75A6843
:100E5000D96803609B680A445B004260C0E90235C0
:100E600060616369D9685A68481C0431D860013AE6
:100E700043F8217002441046BDE8F087A806002020
:100E800010B504461CF058FE01462046BDE810404F
:100E9000FFF770BF08B5FFF713FF008808BD08B55E
:100EA000FFF70EFF807808BD08B5FFF709FF033094
:100EB00008BD08B5FFF704FF83780B60033008BD59
:100EC0002DE9F8431D46002303600B6013602B607F
:100ED000174BDFF860905C690746884616460CB1F0
:100EE0004C4505D12B68326813442B60BDE8F8836C
:100EF0003B6801333B60E268D8F800301344C8F81F
:100F00000030E26804F1100303EB8202934207D33E
:100F10002046FFF72FFC2B68246818442860DEE782
:100F200053F8041B88783168043101443160EDE7DF
:100F3000A8060020707D06082DE9F8430E4B0F4FE0
:100F40005C69DFF83C80DFF83C900CB1BC4201D119
:100F5000BDE8F883E36804F1100505EB8306B542AC
:100F600001D32468F1E755F8042B41460332484683
:100F7000E2F7F4FCF3E700BFA8060020707D060846
:100F8000906505083C9A050838B5446803680C4428
:100F90009C42054610D9037BDB0703D50021074897
:100FA0000AF02CFC103424F0070408342146806831
:100FB000FFF781F82C60A86038BD00BFECC00508C1
:100FC00070B504460E4611461546FFF7DDFFD4E91D
:100FD00001302A46314618441CF065FD62682A44F7
:100FE000626070BD70B5466804468E42354628BFC3
:100FF0000D460121FFF7C8FFA368681C5919721B31
:1010000018441CF050FD6368A068013363602844F5
:1010100070BD38B504460025002914BF08460120DC
:1010200020606560FFF72CF8237BA06065F3000368
:10103000237338BD38B505460C460131FFF7E9FF8B
:101040006C6038BD0023C0E90132037B016043F0CE
:10105000010303737047000038B514460546FFF7D7
:10106000D8FF024B2560636038BD00BFC10F020886
:10107000037BDB0710B5044602D48068FFF728F82D
:101080000023A36010BD38B505461020FEF7F8FF19
:1010900029460446FFF7BDFF204638BD10B504467B
:1010A00050B1037BDB0702D48068FFF711F82046BC
:1010B000BDE81040FFF70CB810BD000038B5037B49
:1010C000DB0704460D4603D5002107480AF096FBCE
:1010D000016880682944FEF7EEFF2368A0601D4484
:1010E0002560184438BD00BFECC0050838B504467B
:1010F0000D46FFF749FFD4E901301D4465601844EF
:1011000038BDD0E900239A4210B5044602D101212E
:10111000FFF7D4FFD4E901320021D154A06810BDFB
:1011200010B50C460121FFF7E1FF047010BD7F29C7
:10113000F8B50C46CEB204D80121FFF7D7FF0670F0
:10114000F8BD06F03F06B1F5006FC1F3871546F014
:10115000800607D20221FFF7C9FF65F03F05057041
:101160004670EDE705F03F05B1F5803FC1F3073765
:1011700045F0800508D20321FFF7B8FF67F01F0391
:10118000037045708670DBE70421FFF7AFFFA40C06
:1011900007F03F0364F00F0463F07F0304704370B3
:1011A0008570C670CCE738B5054608460C461CF07D
:1011B000C3FC214602462846BDE83840FFF700BF81
:1011C00010B51446FFF70EFF047010BD10B514469D
:1011D000FFF708FF047010BD43688B4234BF002343
:1011E0005B1A4360704738B5154642688A42044628
:1011F0000B4603D929448A4201D8436038BD806830
:10120000D21A521B014418441CF04DFC6268521B58
:101210006260F3E703781A060AD503F07F034022E1
:10122000134207D110F8012F02F0C001802905D028
:101230001846704723EA02035208F1E702F03F0222
:1012400042EA8313EEE7421C10460132037803F0B2
:10125000C003802BF8D070470023814201D8184684
:10126000704711F8012D02F0C002802A18BF013327
:10127000F3E701440346002099421A4600D870471C
:10128000127802F0C002802A03F1010318BF013076
:10129000F2E700007F289DBF024B185CC0F34000BE
:1012A00000207047719A05087F289DBF024B185C8B
:1012B000C0F3C00000207047719A05087F289DBFC9
:1012C000024B185CC0F3800000207047719A05083B
:1012D0007F289DBF024B185CC0F380100020704730
:1012E000719A05087F2809D8064B1B5C13F00C0F78
:1012F00006D1A0F15F035842584170470020704763
:1013000001207047719A05087F289DBF024B185C29
:10131000C0F3001000207047719A05087F289DBF18
:10132000024B185CC0F3401000207047719A05080A
:1013300008B50246FFF7E8FF00B12032104608BDAD
:1013400008B50246FFF7EAFF00B1203A104608BD93
:101350003038092884BF20F020000738704710B5C6
:1013600001440246E5240020914203D8B0FA80F0FF
:10137000400915E012F8013B20B11B0611D50138D8
:10138000C0B2F1E7BF2B09D9F72B09D8DB0803F06E
:10139000060344FA03F303F00300E5E71B06E3D575
:1013A00010BD0020FCE7023981420B4603D31A88A6
:1013B0000239002AF8D00233181A4010704770B56D
:1013C0001C09944215D2121B01EB4401154603F08F
:1013D0000F030E46012D31F8024B18BF3468DC4074
:1013E000A4B2013D20F8024BF3D104B9013A1046F2
:1013F00070BD0022FBE7F0B5059E0024921B254638
:10140000A6420ED17600841900230E449A4213D1CD
:1014100004EB420315B124F812500233181A40109D
:10142000F0BD31F8147033F814C067443D4420F81F
:1014300014502D0C0134E3E736F813100D4424F852
:1014400013502D0C0133E1E7F0B4049E0025921BEC
:101450002C46AE420AD17600851900230E449A42EA
:101460000FD105EB4201F0BCFFF79DBF31F81570BD
:101470003C4433F81570E41B20F815402414013562
:10148000E7E736F813100C4425F813402414013311
:10149000E5E72DE9F043079CDDF828E0DDE9087673
:1014A000551E023984464FF6FF78A4EB02096C1CE6
:1014B0000AD100EB42011FB1012320F812300231A2
:1014C000BDE8F043FFF76FBF31F8024F44442644B4
:1014D00009EB0504AC4296BF1C884FF6FF744444E8
:1014E000744486EA040E17FA8EF72CF8027B98BF34
:1014F00002334FEA144E360C3F0C013DD7E738B5A6
:1015000002290446806838BF02210D4618B12368BD
:10151000B1EB930F07D96900FEF7CDFD2368A060FA
:1015200065F39F03236038BD38B505460C20FEF7F0
:10153000A7FD2A78037862F300036FF341030446A2
:10154000037028682368C0F39D0060F39F03236045
:101550006B6863604000FEF793FDA0602A68A9688D
:10156000C2F39D0252001CF076FA204638BD10B539
:1015700001394B1C01D1002010BD30F8113032F878
:1015800011401B1B002B04DB01F1FF31F1D00120C6
:10159000F2E74FF0FF30EFE710B5044638B180684E
:1015A000FEF796FD2046BDE81040FEF791BD10BD48
:1015B00038B505460C460221FFF7A1FF2B78002C19
:1015C000B5BF43F001036FF300032B702B704FF096
:1015D0000003B8BF64426B6004B938BDD5E901327D
:1015E000581C686022F81340240CF5E70023C0E97A
:1015F00000338360704728B103789B0702D480686A
:10160000FEF766BD704738B505460C464968FFF7DA
:1016100076FF22782B78A86862F300032B7063684A
:101620006B606268A1685200BDE838401CF013BAD4
:10163000034609B959607047FFF7BABF08B5FFF70D
:10164000D5FFBDE80840FFF7F3BF30B4057805F0DB
:10165000FE0545F002050570056862F39F0500224E
:101660000560C0E9012130BC1946FFF7E1BFF8B5BC
:1016700004469DF8185004211F461646FFF73FFF09
:1016800023787DB1002E77F100020BDA43F00103DD
:101690007642237067EB47070021616056EA070333
:1016A00004D1F8BD6FF300032370F5E7D4E901100E
:1016B0004D1C656020F81160310C41EA0741380C7F
:1016C0000E460746EAE72DE9F04110EE106A03786E
:1016D000F20F62F300030370C6F30F4313F4FF43EA
:1016E000074603D100237B60BDE8F081B3F5FF4FCF
:1016F000F8D0C6F3C754A4F17F05002DF2DB04D166
:101700000121BDE8F041FFF753BF162DC6F31606C1
:10171000D8BFC5F1170546F40006DCBFEE40002532
:10172000A4F16F084FF01003C8BF093598FBF3F818
:10173000CCBF963C2C464146C4BF05F00F0594FB38
:10174000F3F4FFF7DCFEC7F8048024B16200002147
:10175000B8681CF0C0F945B1BB6806FA05F2C5F1DE
:10176000100523F81420EE40013464004FEA4808C5
:101770004445B9D0BB681E53360C0234F8E72DE956
:10178000F84304468F18C2F35B020D469846511C7D
:10179000089EFFF7B4FE2278B8F1000F0CD042F09B
:1017A000010200232270636028461FFA86FCB842BB
:1017B00005D3401BBDE8F88368F30002F1E7027827
:1017C000A2F13003092B00F1010E05D9A2F141036A
:1017D000192B15D8A2F13703B342EAD2D4E901019B
:1017E00080468946B8F1000F11D101EB400213B1D8
:1017F00021F810300232521A521062607046D6E759
:10180000A2F16103192BD4D8A2F15703E4E7B9F888
:10181000002002FB0C3329F8023B08F1FF381B0CB7
:10182000E0E7F8B5044615461E46C1B1531E1E44F6
:101830004FF0FF37E9000F3109092046FFF75FFE3F
:10184000237800216FF30003237061604DB9D4E960
:10185000011000EB4101FFF7A6FD6060F8BD012714
:10186000E8E700230F2908DC32788A401343013D62
:101870009BB201F108013E44F4D16268501C6060E3
:10188000A068103920F81230E0E70A46416838B500
:10189000044609B9506890B11378257803F0010324
:1018A00005F00100181A0AD15368994208D30AD8E2
:1018B0009268A068FFF75BFEEB0748BF404238BD67
:1018C0004FF0FF30F8E70120F6E7884210B50446F4
:1018D00001D0FFF798FE23786FF30003237010BD4B
:1018E000884210B5044601D0FFF78DFE2378C3F37C
:1018F0000002C2F1010262F30003237010BD8842AE
:101900001FB5044601D0FFF77EFE626862B901216F
:101910002046FFF7F4FDA26801231380636023785B
:1019200043F00103237010E02378D9070FD56FF33C
:101930000003A16823700123ADF80E300093084620
:101940000DF10E03FFF780FD606004B010BD511C67
:101950002046FFF7D4FDD4E901210123ADF80E3074
:10196000009308460DF10E03FFF745FD6060D6E7D2
:101970002DE9F0470E4649680546174601B12AB9D8
:1019800031462846BDE8F047FFF73DBE02F10F049F
:1019900024092144FFF7B3FDD6E9011017F00F0227
:1019A0006FF0004E04EB010707EB0E086FF0010C1F
:1019B0000CFB01FCAB684FEA48088E440CEB4E0E62
:1019C00008BF1022C444864403EB0C090020C2F176
:1019D0001002F1B9D04023F80C006FF0010303FBB3
:1019E000049304F100420233013A184652001CF0FD
:1019F00072F808F102080346434417B133F8022D88
:101A000092B16F6032782B7862F300032B70BDE8DF
:101A1000F0873EF811A04AEA000020FA02FA29F8FD
:101A200011A000040139D4E7013FE6E7F0B50E4606
:101A3000496885B00546144601B12AB931462846A1
:101A4000FFF7E1FD05B0F0BDFFF759FDD6E9012133
:101A50002346A868FFF7B3FC686031782B7861F300
:101A600000032B70DB070246ECD500237768ADF846
:101A70000E3021099F4201D08B4212D18F42E1D911
:101A8000B36804F00F0433F81110012303FA04F4CF
:101A9000013C214218BFADF80E30BDF80E304BB9F5
:101AA000D0E7B06830F8130078B101238F42ADF869
:101AB0000E30E5D8A96801234AB1009308460DF11C
:101AC0000E03FFF798FC6860BCE70133D2E70B8098
:101AD0006B60B7E773B553680C4649689942064690
:101AE000154606D308D89268A068FFF740FD002885
:101AF00002DA23462C461D4623782A786168534033
:101B0000DB0713D401313046FFF7F9FC6B68009313
:101B1000AB68B068D4E90121FFF76DFC70602278F2
:101B2000337862F30003337002B070BD3046FFF7C4
:101B3000E6FC6B680093AB68B068D4E90121FFF75D
:101B400083FCEBE7F7B553680C46496899420646B3
:101B5000154606D328D89268A068FFF708FD00282C
:101B600022DA234601272C461D4623782A7861680D
:101B70005340DB071AD501313046FFF7C0FC6B68D4
:101B80000093AB68B068D4E90121FFF734FC7060C2
:101B90002278337802F001020FB1C2F1010262F340
:101BA0000003337003B0F0BD0027DEE73046FFF7D7
:101BB000A6FC6B680093AB68B068D4E90121FFF71D
:101BC00043FCE4E72DE9F04F16464A6873689A42F1
:101BD00024BF33460E460D4628BF1D463378716834
:101BE000DA0785B0044621D42B7813F001071DD104
:101BF000FFF785FCD5E9011CA068B6683B46994211
:101C00000BD100EB4101FFF7CEFB237860606FF34F
:101C10000003237005B0BDE8F08F36F813203CF8C0
:101C200013502A4020F813200133E8E70131204601
:101C3000FFF765FC32782978D6F804C0A068D5F89B
:101C4000088082EA0103DB4303F001035F42009353
:101C5000B368BFB202F00102A3F102096B680297F8
:101C600001F001015742BFB2C1F1000EA3EB0C031A
:101C700001971FFA8EFE0CF1FF37824603937B1CFF
:101C800016D1009B00EB4C011BB1012320F81C3046
:101C90000231FFF788FB606033782A78C3F30003D2
:101CA000C2F300021340227863F300022270B1E70E
:101CB00039F802BF019B83EA0B0B039B5A4403EBE9
:101CC000070BBB4598BFB8F800B0029B94BF8EEAE3
:101CD0000B0BF346594402EA010B8BEA030B009B02
:101CE00013FA8BF32AF8023B4FEA134398BF08F12B
:101CF0000208090C120C0093013FC0E72DE9F84FD0
:101D000015464A686B689A4224BF2B460D460E461C
:101D100028BF1E462B786968DA0704462ED432782D
:101D200012F001082AD1FFF7EAFBD6E9013CA968C5
:101D30006D68A768ED1A4246934210D15B001944C2
:101D400000223B44954213D103EB4503DB1B5B10A0
:101D5000636023786FF300032370BDE8F88F31F8D8
:101D600012003CF81260304327F812000132E3E71A
:101D700031F8120023F812000132E3E70131204666
:101D8000FFF7BDFBD6E901382F7836786968A0687F
:101D9000AD6807F0010706F00106C7F1000EC6F1B5
:101DA000000C1FFA8EFE1FFA8CFC4A1E023D824672
:101DB0004FF00109A3EB010B531C08D100EB4101CB
:101DC000FFF7F1FA2378606043F00103C4E735F8C8
:101DD000023F8EEA03031F440BEB0203934296BFBC
:101DE000B8F8003063468CEA03031E4447EA060352
:101DF0006FEA030319FA83F398BF08F102082AF87F
:101E0000023B360C3F0C4FEA1349013AD4E7F0B5D8
:101E100014464A6863689A4228BF23460E4624BF88
:101E20000C461E462778337861685F4017F001073B
:101E300085B005463AD1FFF762FB237813F0010322
:101E400028D1D6E90117A2686468A868641A994283
:101E500010D149000A4400230144A34214D101EBEC
:101E60004301FFF7A0FA2B7868606FF300032B7033
:101E700005B0F0BD32F8136037F813C086EA0C06DF
:101E800020F813600133E2E732F8136021F81360A1
:101E90000133E2E7CDE90277019773680093B368F5
:101EA000A868D4E90121FFF7F4FADCE70131FFF774
:101EB00026FB3378A868DB4303F001030393237800
:101EC000DB4303F001030293012301937368009342
:101ED000B368D4E90121FFF7DCFA2B78686043F09E
:101EE0000103C4E72DE9F04F4B6885B004460E4668
:101EF00015460BB1536823B90023636005B0BDE8F4
:101F0000F08F81422FD1FFF70FFBA542064607460F
:101F100000D105466B68716820461944FFF7EFFA57
:101F20002268A068C2F39D02520000211BF0D3FD7D
:101F3000B368D6F804C002936FF00103D4F808A088
:101F400003FB0CF3D5E90128023B0AEB4C0100200E
:101F5000039392B3039BDDF808B0CDF804C003EB04
:101F6000010E002318E0824204D1FFF7DDFA054696
:101F70000746CFE70027CDE73EF8029F99443BF89C
:101F8000023B1846B8F8003003FB00930198AEF806
:101F9000003001381B0C019001980028ECD1084654
:101FA00001F1020E0BB10B807046A0EB0A0040104D
:101FB000013A08F102087146CBE76060337829786E
:101FC0004B4013F0010F237838460CBF62F3000337
:101FD00043F00103237005B0BDE8F04FFFF7DCBA12
:101FE0004B6870B50646144613B11378DA0702D56C
:101FF0000023736070BD636823B90121BDE87040A0
:10200000FFF7D6BA0846FFF78FFA05462046FFF7D6
:102010008BFA012104463046FFF7CAFA636883B1A0
:10202000A3681B88DB0704D52A4631463046FFF7F4
:1020300059FFD4E9012101230846FFF7C0F9606088
:1020400038B92846FFF7A8FA2046BDE87040FFF7E8
:10205000A3BA2A4629462846FFF744FFDEE72DE9C2
:10206000F04F0C4651688FB09146013105460193FF
:10207000FFF745FAD9F80420A86801325200002180
:102080001BF029FD00236B60D9F8041020460131B4
:10209000FFF735FA49462046FFF7B5FA019B676816
:1020A000D4F808B0D3E901360093AB680293009BE3
:1020B000BB422CD82DD3324639465846FFF757FA43
:1020C000002823D1029A6060012313806B60019A7B
:1020D00099F8003012785340DB0714D52B7843F081
:1020E00001032B70636873B14FF0FF310BA8FFF74A
:1020F000A5FA0BAA29462846FFF7ECFC019A2146CF
:102100002046FFF7E7FC0FB0BDE8F08F01DA0023AF
:10211000DCE7009B03F1004001384FEA400A36F843
:102120001020002312F4004F03F1010155D07A0072
:102130009BB24FF0000E791C02F102080492C3F129
:1021400010022BF817E0D8446160DC467746039212
:10215000C44546D336F8100000FA03F20392009A01
